:020000040800F2
:10000000480600209D0100083B1B0008C518000899
:10001000391B0008A9020008651F00080000000045
:100020000000000000000000000000003F1B00086E
:1000300065030008000000003D1B0008411B00088C
:10004000B7010008B7010008B7010008B7010008B0
:10005000B7010008B7010008B7010008B7010008A0
:10006000B7010008B7010008B7010008B701000890
:10007000B7010008B7010008B7010008B701000880
:10008000C5020008D1020008B7010008B701000846
:10009000AD020008B7010008B7010008B701000869
:1000A000B7010008B7010008B7010008B701000850
:1000B000E51B0008B7010008B7010008B7010008F8
:1000C000B7010008B7010008B7010008B701000830
:1000D000B70100084D1F0008591F0008B7010008AC
:1000E000B7010008B7010008B7010008B701000810
:1000F000B7010008B7010008B7010008B701000800
:10010000B7010008B7010008B7010008B7010008EF
:10011000B7010008B7010008B7010008B7010008DF
:10012000B7010008B7010008DD020008B7010008A8
:10013000B70100080000000000000000B70100083F
:10014000B9020008B7010008B7010008B7010008AC
:10015000B7010008B7010008B7010008B70100089F
:10016000B7010008B7010008B7010008B70100088F
:10017000B7010008B70100080000000000000000FF
:10018000B7010008B7010008DFF80CD000F07AF8DA
:1001900000480047A51F0008480600200648804781
:1001A00006480047FEE7FEE7FEE7FEE7FEE7FEE75C
:1001B000FEE7FEE7FEE7FEE7C91B0008890100082D
:1001C0002DE9F05F0546002092469B46884606468C
:1001D000814640241BE0284641464746224600F01F
:1001E00041F853465A46C01A914110D31146184659
:1001F000224600F028F82D1A67EB01084F462246E8
:100200000120002100F01FF817EB00094E41201ECD
:10021000A4F10104DFDC484631462A464346BDE8E6
:10022000F09FD2B201E000F8012B491EFBD27047CB
:100230000022F6E710B513460A4604461946FFF7B2
:10024000F0FF204610BD202A04DB203A00FA02F11C
:10025000002070479140C2F1200320FA03F31943B4
:1002600090407047202A04DB203A21FA02F0002156
:10027000704721FA02F3D040C2F1200291400843B6
:1002800019467047064C074D06E0E06840F0010350
:1002900094E8070098471034AC42F6D3FFF778FF94
:1002A000EC1F00080C200008FEE70000014800F0E9
:1002B0005CB8000014000020014800F056B80000AF
:1002C0003C000020014800F079BA000084010020C1
:1002D000014800F073BA0000E4010020014800F07A
:1002E0006DBA00002401002001681823CAB2103A38
:1002F000B2FBF3F2054B6FF30901032A9B5CC36564
:1003000000D9091D8165084670470000CA1F000812
:1003100010B5014600208B698A6A4FF0C07453B152
:10032000B3F5005F15D072B1012A0CD0022A0AD0B1
:10033000032A09D104E01AB1012A06D0022A03D106
:10034000C96AC90100D5012010BDC96AA142FAD00D
:1003500010BD002AF7D0012AF2D0022AF3D0032AD6
:10036000F3D010BD7047704770472DE9F05F054628
:10037000006800244669D0F804908768D0F80CB073
:10038000D0F810A0D0F81880F10748D0F90714D0A1
:1003900001218160B80703D5284600F0F7F90CE089
:1003A000780702D54FF4006407E0380702D54FF410
:1003B000805402E0284600F0E8F9F80516D52968CF
:1003C0004FF480708860B80503D5284600F0E0F946
:1003D0000CE0780502D544F4005407E0380502D556
:1003E00044F4804402E0284600F0D1F9F80316D521
:1003F00029684FF480308860B80303D5284600F0A0
:10040000C9F90CE0780302D544F4004407E038034E
:1004100002D544F4803402E0284600F0BAF93007EF
:1004200007D55FEACB6004D52968102044F4007436
:10043000C86070074FF0080707D55FEA0B7004D556
:100440002868C760284600F09BF9B00706D52868E1
:10045000C068800702D0284600F093F9700607D5DF
:100460005FEACA6004D52968102044F480640861FA
:10047000B00607D55FEA0A7004D5286807612846E8
:1004800000F080F9F00606D528680069800702D0E0
:10049000284600F078F9B00308D55FEAC96005D5B1
:1004A000296810204860284600F06EF9F00307D54F
:1004B0005FEA097004D528684760284600F06BF9A8
:1004C000300446D55FEA497040D5F00504D55FEAAF
:1004D000C87001D044F00104B00504D55FEA88700B
:1004E00001D544F00204700504D55FEA487001D5D7
:1004F00044F00404300529D518F0700F26D008F018
:100500007000402815D006DC102809D020280AD019
:10051000302816D10AE050280ED0602811D10EE004
:1005200044F008040DE044F010040AE044F0200414
:1005300007E044F0400404E044F0800401E044F4A7
:1005400080742868816921F0700181612968042024
:100550004860002C05D0686A204368622846FFF78F
:1005600003FFBDE8F09F70B5040003D094F82000AD
:1005700010B104E0012070BD204600F081F8206831
:10058000016821F00201016000F034FB05460526F8
:1005900004E000F02FFB401B0A2811D820684068B7
:1005A0008007F6D42068016841F00101016000F085
:1005B00021FB05460BE000F01DFB401B0A2806D975
:1005C000606A40F40030606284F82060D2E72068FE
:1005D0004068C007EFD0207E0128206801683DD028
:1005E00021F080010160607E01282068016838D018
:1005F00021F040010160A07E01282068016833D00D
:1006000021F020010160E07E0128206801682ED0E1
:1006100041F010010160207F01282068016829D085
:1006200021F008010160607F01282068016824D062
:1006300021F004010160D4E902010843D4E9041265
:10064000114308436168491E08432168C8610020BE
:100650006062012084F82000002070BD41F080011C
:10066000C0E741F04001C5E741F02001CAE721F0B1
:100670001001CFE741F00801D4E741F00401D9E7C8
:10068000F0B587B0044614216846FFF7D1FD374B1B
:100690003748DFF8D4E01968D4F800C0344A02259E
:1006A0000326092710300024491CF44524D1196081
:1006B000012907D1016841F000710160006800F074
:1006C00000700590106840F001001060106802ABE7
:1006D00000F0010005904FF4C050CDE9000583E81B
:1006E000D0006946234800F0A3F9002211461420E7
:1006F00000F0EEFA142033E0DFF87CE0F44531D16D
:10070000D0F800C04CF0806CC0F800C0D0F800C039
:1007100001290CF0806CCDF814C0196007D1016874
:1007200041F000710160006800F0007005901068F1
:1007300040F002001060106802AB00F0020005906B
:100740004FF44050CDE9000583E8D00069460B48DE
:1007500000F06EF900221146402000F0B9FA402066
:1007600000F0A8FA07B0F0BD0064004000000020CF
:10077000303802400000024000680040000402409F
:1007800070477047704770477047704770477047B1
:10079000704770477047704790F83510022903D0B2
:1007A0008021416501207047052180F835100068DF
:1007B000016821F001010160002070472DE9F84334
:1007C00004464FF00009CDF8009063484FF41651ED
:1007D000A56D0068B0FBF1F72E6894F85C10082056
:1007E00000FA01F131420FD021680A6852070BD597
:1007F0000A6822F004020A6094F85C108840A8603D
:10080000606D40F00100606594F85C104FF00108E5
:1008100008FA01F0304208D021684969090604D578
:10082000A860606D40F00200606594F85C100420E0
:100830008840304208D021680968890704D5A8603B
:10084000606D40F00400606594F85C1010208840F2
:10085000304218D021680968090714D5A8602068BB
:100860000168490304D50068000308D5A16C07E0BE
:100870000168C90503D4016821F008010160216CF9
:1008800009B12046884794F85C1020208840304207
:1008900031D021680968C9062DD5A86094F83500C3
:1008A00005282068016806D0490347D50068000381
:1008B0001DD4616C1CE021F01601016020684169C3
:1008C00021F080014161206C08B9A06C20B1206842
:1008D000016821F00801016094F85C103F20884015
:1008E000A86084F8349084F83580216D1FE0E16BB6
:1008F00009B120468847606D00282BD0606DC00785
:1009000014D0052084F835002068016821F0010129
:1009100001600098401C0090B84203D8206800682D
:10092000C007F6D184F8349084F83580E16C002952
:1009300010D001B02046BDE8F04308470168C90562
:10094000D5D4016821F01001016084F8349084F856
:100950003580CCE7BDE8F883100000202DE9F04198
:10096000044600F047F906465CB1002584F834508F
:10097000022084F835002068016821F0010101603F
:100980000DE00120BDE8F08100F034F9801B05285E
:1009900005D920206065032084F83500F2E720683F
:1009A0000068C007F0D12268116820480140D4E9EE
:1009B00001031843D4E903363343184363691843EA
:1009C000A3691843E3691843236A18430843616A1B
:1009D000042903D1D4E90B1319430843106020689C
:1009E0004069666A20F0070130460E43012704285B
:1009F0000CD1A06A0643E06A40B12046FFF788FCAC
:100A000020B14020606584F83570BAE720684661FF
:100A10002046FFF769FC94F85C203F2191408160FB
:100A2000656584F835700020ACE700003F8010F069
:100A30002DE9F84F00224FF0010803254FF00F0E6B
:100A40000B6808FA02F42340A3426ED14E68012ECF
:100A500005D0022E03D0112E01D0122E12D186689D
:100A60004FEA420C05FA0CF7BE43CF6807FA0CF7C1
:100A7000374387604668A6430C79C4F3001494405A
:100A800034434460C668570005FA07FC8C6826EAC0
:100A90000C06BC403443C4604C68022C01D0122CBC
:100AA00013D1D40800EB8404A346D4F82090540753
:100AB0004FEAD46A0EFA0AF629EA06090E6906FA1E
:100AC0000AF646EA0906CBF8206006680C7926EAA1
:100AD0000C0604F00304BC40344304604C68E4009A
:100AE00065D5364C266846F480462660246822F098
:100AF000030604F480440094314C3444A446D4F8F2
:100B000008489607370F0EFA07F6B4432D4EB04249
:100B100001D1002624E02C4EB04201D101261FE075
:100B20002A4EB04202D102261AE040E0284EB042DE
:100B300001D1032614E0274EB04201D104260FE074
:100B4000254EB04201D105260AE0244EB04201D123
:100B5000062605E0224EB04201D1072600E0082615
:100B6000BE402643CCF808681E4E34684F689C434C
:100B7000FF0300D51C4334601A4C241D26684F68BF
:100B80009E43BF0300D51E432660164E08363468C8
:100B90004F689C43FF0200D51C433460114E0C3655
:100BA00034684F689C43BF0200D51C433460521C1C
:100BB000102AFFF445AFBDE8F88F0000443802402A
:100BC00000300140000002400004024000080240E2
:100BD000000C0240001002400014024000180240C5
:100BE000001C0240003C01400AB1816170470904C9
:100BF000FBE7000001488068704700000400002007
:100C00000248816802781144816070470400002026
:100C10000B4810B5016841F400710160016841F4AE
:100C200080610160016841F480710160032000F07F
:100C30006FF8002000F006F800F024F8002010BD46
:100C4000003C024070B50D4D04464FF47A7128788F
:100C5000B1FBF0F00A490968B1FBF0F000F002FBCB
:100C600048B9102C07D200222146501E00F030F85F
:100C700000206C6070BD012070BD000004000020E9
:100C8000100000200A4808B5016841F48041016065
:100C9000006800F4804000900548001F016841F0A2
:100CA00080510160006800F08050009008BD000095
:100CB00044380240002809DB00F01F020121914066
:100CC0004009800000F1E020C0F8001170470000EA
:100CD000F0B40E4B1B680C46C3F30223C3F10705A7
:100CE000042D00D90425191D072901D2002300E095
:100CF000DB1E012606FA05F1491E214099409E405F
:100D0000761E16403143F0BC01F02DB90CED00E029
:100D1000064900F0070208684FF6FF03184040EA52
:100D20000220034A10430860704700000CED00E009
:100D30000000FA052DE9F0470E46050065D0DFF802
:100D40001481D8F80000F7B200F00F00B04207D2CB
:100D500088F80070D8F8000000F00F00B04254D1BD
:100D600028683D4C810712D5400703D5206840F420
:100D7000E05020602878000703D5206840F46040E8
:100D800020602068A96820F0F000084320602878DF
:100D9000C0072DD0304968680839012812D00228D0
:100DA00013D0032811D00968890700292DDA21689A
:100DB00021F0030101432160FFF71CFF814641F24E
:100DC000883A0EE009688903EFE709688901ECE7D2
:100DD000FFF710FFA0EB0901514502D90320BDE840
:100DE000F0872068696800F00C00B0EB810FEFD14C
:100DF000D8F80010404601F00F01B14207D9077042
:100E0000006800F00F00B04201D00120E7E7287829
:100E1000400705D52068E96820F4E05008432060C9
:100E20002878000706D52068296920F4604040EA48
:100E3000C100206000F038F82168084AC1F30311AE
:100E4000515CC8400649086006480068FFF7FAFE92
:100E50000020C4E7003C024008380240D21F0008CE
:100E600010000020080000200448054900680968B7
:100E7000044AC1F38221515CC84070471000002031
:100E800008380240E21F0008044805490068096864
:100E9000044AC1F34231515CC84070471000002041
:100EA00008380240E21F0008154810B5006810F02D
:100EB0000C02144813D04110042A0FD0082A0ED176
:100EC0000F4C241F2268236802F03F025B0207D503
:100ED0002068C0F38810A0FB010106E0084610BDA1
:100EE0002168C1F38811A1FB00010023FFF768F915
:100EF0002168C1F30141491C4900B0FBF1F010BD6C
:100F0000083802400024F4002DE9F84F04006ED0A8
:100F10002078DFF83C93C007A9F104054AD009F115
:100F200004000168C1F38101012908D00068C0F301
:100F3000810002280AD1D9F80000400206D52868AD
:100F4000800337D560680028E1D033E06068B0F5F1
:100F5000803F10D0B0F5A02F286810D020F480304A
:100F60002860286820F4802028606068A8B1FFF716
:100F700041FE06460DE0286840F48030F4E740F476
:100F800080202860F7E700BFFFF734FE801B64284D
:100F900073D828688003F7D50CE0FFF72BFE0646D0
:100FA00005E000BFFFF726FE801B6428F0D8286804
:100FB0008003F7D42078DFF89C8280074FF0000A86
:100FC0003ED5A348001D016811F00C0F08D0006841
:100FD000C0F3810002280BD1D9F80000400207D4E9
:100FE0002868800716D5E068012800D112E02BE1BF
:100FF000E068B8B10120C8F80000FFF7FBFD064625
:1010000005E000BFFFF7F6FD801B0228C0D8286866
:101010008007F7D52868216920F0F80040EAC10070
:1010200028600DE0C8F800A0FFF7E4FD064604E0E4
:10103000FFF7E0FD801B02281FD828688007F7D43F
:101040002078000722D5824E83486169703671B1DD
:1010500001210160FFF7CEFD074604E0FFF7CAFD5E
:10106000C01B022809D830688007F7D50EE0C0F809
:1010700000A0FFF7BFFD074605E082E0FFF7BAFDDD
:10108000C01B02287DD830688007F7D4207840073D
:1010900068D5DFF8BCB100270BF13C0BDBF8000092
:1010A000C0000BD4DBF8001041F08051CBF80010E9
:1010B000DBF80000012700F080500090674E306898
:1010C000C00510D4306840F480703060FFF792FDA6
:1010D000009005E0FFF78EFD0099401A022850D8D5
:1010E0003068C005F6D55A4EA0686C3601280FD07E
:1010F0000528306810D020F001003060306820F002
:1011000004003060A068B8B1FFF774FD00900FE0F4
:10111000306840F00100F4E740F004003060F7E789
:10112000FFF768FD0099411A41F28830814266D884
:1011300030688007F4D50EE0FFF75CFD009007E013
:10114000FFF758FD0099411A41F28830814256D884
:1011500030688007F4D42FB1DBF8001021F0805103
:10116000CBF80010A069C8B33949091D0968C1F35B
:10117000810102294AD00228504607D0C8F86000F1
:1011800000E03CE0FFF736FD04463BE04746C8F888
:101190006000FFF72FFD064605E000BFFFF72AFDC0
:1011A000801B02282BD828688001F7D4D4E90701D6
:1011B0000843A16A2A4A490802EB0141626A41EAEE
:1011C0008211084394F82C1040EA0161C9F800101C
:1011D00001203866FFF70EFD044606E036E000BF4A
:1011E000FFF708FD001B022809D828688001F7D501
:1011F0002CE000BFFFF7FEFC001B022802D90320F1
:10120000BDE8F88F28688001F4D41FE00128F7D0EA
:10121000D9F80000E26900F48001914214D1226AF9
:1012200000F03F0191420FD147F6C071626A014060
:10123000914209D1A26A00F44031914204D1E16A9D
:1012400000F07060884201D00120D9E70020D7E784
:101250000438024000004742800E474200700040C0
:101260000000FFFF10B5401EB0F1807F01D30120C8
:1012700010BD4FF0E02460610F21601700F073FE95
:101280000020A06107202061002010BD704770473A
:1012900070B590F83C20012A32D0012480F83C40FF
:1012A000022280F83D2003685A689D6822F070068B
:1012B0000A6832435A60134B02689A4214D0B2F162
:1012C000804F11D0104B9A420ED0104B9A420BD047
:1012D0000F4B9A4208D00F4B9A4205D00E4B9A42C0
:1012E00002D00E4B9A4204D1496825F0800319437D
:1012F000916080F83D40002180F83C10084670BDA8
:10130000022070BD000001400004004000080040C1
:10131000000C004000040140004001400018004063
:1013200010B5040003D094F83D0010B107E001208F
:1013300010BD002084F83C00204600F00DF802208B
:1013400084F83D00211D206800F052FC012084F843
:101350003D00002010BD000008B50068B0F1804FCE
:1013600012D10A48016841F00101016000680022C1
:1013700000F00100009011461C20FFF7A9FCBDE819
:1013800008401C20FFF796BC08BD00004038024012
:1013900070B5044690F83C00012817D0012584F868
:1013A0003C50022084F83D002068826822F07702D9
:1013B00022F47F4282600868502830D00DDC20285B
:1013C0004DD005DC98B310283BD148E0022070BD19
:1013D000302844D0402834D139E0602828D0702803
:1013E00006D0B0F5805F2CD0B0F5005F29D10AE0BF
:1013F000CB68D1E90121206800F05EFC206881689B
:1014000041F0770109E0CB68D1E90121206800F0C3
:1014100053FC2068816841F48041816011E0CA6812
:101420004968206800F05AFC5021206807E016E067
:10143000CA684968206800F062FC6021206800F0FA
:1014400045FC84F83D50002084F83C0070BDCA681B
:101450004968206800F042FC40212068EFE72268DC
:1014600001461046EBE7704770B504460068016915
:101470004FF00005C943890715D4C168C9438907DE
:1014800011D4E91E0161012020772068806980075E
:10149000204602D0FFF7E7FF04E000F098F820466E
:1014A00000F096F8257720680169C943490717D4E9
:1014B000C168C943490713D46FF0040101610220D8
:1014C00020772068806910F4407F204602D0FFF723
:1014D000CAFF04E000F07BF8204600F079F8257799
:1014E00020680169C943090716D4C168C9430907BF
:1014F00012D46FF008010161042020772068C069D0
:101500008007204602D0FFF7AEFF04E000F05FF84E
:10151000204600F05DF8257720680169C943C906B7
:1015200017D4C168C943C90613D46FF01001016113
:10153000082020772068C06910F4407F204602D040
:10154000FFF791FF04E000F042F8204600F040F879
:10155000257720680169C943C90708D1C168C94313
:10156000C90704D1891E0161204600F032F82068C5
:101570000169C943090609D4C168C943090605D4EC
:101580006FF0800101612046FFF780FE206801694D
:10159000C943490609D4C168C943490605D46FF057
:1015A00040010161204600F015F820680169C94337
:1015B00089060BD4C168C943890607D46FF020019E
:1015C00001612046BDE87040FFF761BE70BD704705
:1015D000704770477047704770B5026804461068DE
:1015E000D168536910F00F0F53D003F0010501F4D7
:1015F00090762E435FD0C20705D0CA0503D5E26BB3
:1016000042F00102E263420705D5DA0703D0E26B3C
:1016100042F00202E263820705D5DA0703D0E26BEB
:1016200042F00402E263020707D501F020022A43D8
:1016300003D0E26B42F00802E263E26B002A34D08E
:10164000800604D5880602D5204600F080FB20687D
:101650004069E16BC0F3801001F0080101432046AE
:1016600024D000F066FB2068416949061AD541691B
:1016700021F040014161606BA0B11B490165606BC5
:10168000FFF78AF8002810D0606B016DBDE870404C
:10169000084783060FD58B060DD52046BDE8704060
:1016A00000F055BB2046FFF796FF70BDFFF793FF94
:1016B0000020E06370BD030606D50B0604D5204666
:1016C000BDE8704000F010BC4006F3D54806F1D5E7
:1016D000D168204621F04001D160202184F83910E2
:1016E00000F0EFF870BD0000231D000870B5040085
:1016F00004D094F83900002510B106E0012070BD37
:1017000084F83850204600F023F8242084F839006B
:101710002068C16821F40051C160204600F062FBDE
:101720002068016921F4904101612068416921F03C
:101730002A0141612068C16841F40051C160E5633C
:10174000202084F8390084F83A00002070BD0000A1
:101750002DE9F04387B0064614216846FEF768FD80
:10176000DFF840C1022231684F4803230725DFF824
:101770003C81002497064FF48069614537D14A497E
:101780001431D1F800C04CF0100CC1F800C0096849
:1017900001F010010591016841F00101016000684C
:1017A000694600F00100059058028DE81500CDE96A
:1017B00003354046FFF73CF93E4D3D482860C5E9FA
:1017C0000174C5E903496C61AC61EC612C62284687
:1017D0006C62FFF7C3F808B1FEF7C5FD7563002220
:1017E00011462520AE63FFF773FA252054E0DFF899
:1017F000C8C0614552D12C491031D1F800C04CF419
:10180000003CC1F800C0096801F40031059101688D
:1018100041F0010101600068694600F00100059097
:101820000C208DE81500CDE903354046FFF700F99F
:10183000204D22486035B8462860C5E90174C5E9E5
:1018400003496C61AC61EC612C624F4628466C62C6
:10185000FFF784F808B1FEF786FD7563AE63154D9A
:101860001648C0351830E5E80208402091C51148F7
:1018700045F81449C030AC61EC612C626C62FFF732
:101880006DF808B1FEF76FFD356300221146262082
:10189000AE63FFF71DFA2620FFF70CFA07B0BDE88C
:1018A000F083000000100140303802400000024088
:1018B000406402402401002000440040886002404F
:1018C00070477047FEE700000F4810B50D490160F2
:1018D0000321416000214FF4C0228160C0E903125E
:1018E0004FF4A0024261017641768176C17601779C
:1018F0004177FEF738FE002803D0BDE81040FEF720
:1019000032BD10BD00640040140000200F4810B527
:101910000D4901600321416000214FF4C022816024
:10192000C0E903124FF4A00242610176417681764C
:10193000C17601774177FEF716FE002803D0BDE897
:101940001040FEF710BD10BD006800403C000020B4
:10195000154808B5016841F400110160016801F4FF
:1019600000110091016841F48001016000680022CB
:1019700000F48000009011461020FFF7A9F9102014
:10198000FFF798F9002211461120FFF7A1F9112065
:10199000FFF790F9002211463A20FFF799F9BDE8C8
:1019A00008403A20FFF786B930380240F0B587B0DA
:1019B00014216846FEF73CFC23480024016841F0EE
:1019C00080010160016801F080010591016841F02A
:1019D00004010160016801F004010591016841F012
:1019E00001010160016801F001010591016841F008
:1019F000020101600068154E00F00200059001220E
:101A000003213046FFF7F0F8114F0022012138463C
:101A1000FFF7EAF80022B1143046FFF7E5F841F28B
:101A2000030000900125CDE9015469463046039436
:101A3000FEF7FEFF0095CDE9015469463846039450
:101A4000FEF7F6FF07B0F0BD303802400008024054
:101A50000004024010B586B0002417480094019499
:101A60000294039404944FF0804105940160532143
:101A7000C0E9011440F2E731C0E90314802181611B
:101A8000FFF74EFC08B1FEF76EFC4FF4805000905B
:101A900069460948FFF77CFC08B1FEF764FC049432
:101AA00004A905480594FFF7F3FB002801D0FEF7D1
:101AB0005AFC06B010BD0000640000200E4810B5AE
:101AC0000C4901600D4941604FF480518160002153
:101AD0004FF48062C0E903120C22C0E90521C16104
:101AE000FFF704FE002803D0BDE81040FEF73BBC22
:101AF00010BD000000100140A4000020A0860100DD
:101B00000C4810B50A4901604FF4E13141600021F1
:101B100081600C22C160C0E904128161C161FFF7DC
:101B2000E5FD002803D0BDE81040FEF71CBC10BD49
:101B300000440040E4000020FEE770477047704713
:101B4000FFF75EB830B593B030216846FEF770FB02
:101B500014210CA8FEF76CFB19480025016841F020
:101B600080510160006800F08050119015480168B4
:101B700041F4804101600068022400F4804011902B
:101B800001200090000401908001CDE9064008AAE0
:101B90000420A82182E813000B906846FFF7B4F9EF
:101BA0000CA90F2081E831004FF4A0500F90E00203
:101BB000109005210CA8FFF7BDF813B030BD000050
:101BC00040380240007000400548016841F470014F
:101BD000016003494FF000608039086070470000E1
:101BE00088ED00E00148FFF73FBC000064000020E2
:101BF000F0B50268254C264D264E274F274B4FF057
:101C0000804CA04209D0604507D0A84205D0B04220
:101C100003D0B84201D0984204D122F0700E4A6835
:101C200042EA0E02A0421BD0604519D0A84217D04C
:101C3000B04215D0B84213D0984211D0184DA842E6
:101C40000ED0184DA8420BD0174DA84208D0174D02
:101C5000A84205D0164DA84202D0164DA84203D185
:101C600022F44075CA682A434D6922F080022A4353
:101C700002608A68C2620A688262A04201D0984209
:101C800001D10969016301214161F0BD00000140FA
:101C90000004004000080040000C00400004014027
:101CA000004001400044014000480140001800404D
:101CB000001C00400020004010B5846842EA032266
:101CC00024F47F440A432243826010BD826822F0DC
:101CD00070020A4342F007018160704710B5036A41
:101CE000046A24F001040462846924F0F00444EAE4
:101CF000021423F00A020A438461026210BD10B587
:101D0000036A23F0100303628369046A23F47043B7
:101D100043EA023224F0A00343EA01118261016226
:101D200010BD10B5806B0021C185C184FFF753FC45
:101D300010BD0168CA6822F49072CA6001684A69DD
:101D400022F001024A61202180F83A10704710B554
:101D500090F83A10222901D0022010BD8168B1F517
:101D6000805F11D00169002901681FD0496801F026
:101D70007F03816A4A1C82620B70C18D491E09046F
:101D8000090CC18518D02BE00269816A002A02681B
:101D9000526805D0D2B20A80816A491C8162ECE7A0
:101DA000C2F308020A80816A891CF7E74A68816ADF
:101DB0004B1C83620A70E0E70168CA6822F02002C7
:101DC000CA600168CA6822F48072CA6001684A6900
:101DD00022F001024A61202180F83A10FFF770FDDD
:101DE000002010BD2DE9F041044600680169E26859
:101DF00021F44051114301612169A068E26908435F
:101E00006169114322680843D16849F20C63994320
:101E10000143D16020684169A26921F440711143F6
:101E20004161E269192664253227B2F5004F2C483A
:101E30002C4922684FF000080CD08A4201D082421F
:101E400030D1FFF721F801466068830F8200A1FBC3
:101E500006012EE08A4201D0824202D1FFF714F837
:101E600001E0FFF701F861684A18A0FB060148EBA2
:101E70000803FEF7A5F9B0FBF5F213016FF01801A6
:101E80004A4300EB820007EBC000B0FBF5F000F026
:101E9000F80103EB410100F0070008442168886065
:101EA000BDE8F081FEF7E0FF61688B0F8A00A0FBC0
:101EB0000601FEF785F90146B0FBF5F06FF0180258
:101EC000424301EB820107EB0111B1FBF5F101F097
:101ED000F00202EB001001F00F010844DEE7000001
:101EE000001401400010014090F83910212901D060
:101EF000022070478168B1F5805F016A0BD04A1CEF
:101F00000262026809785160C18C491E0904090CFB
:101F1000C1840ED017E009880268C1F3080151603E
:101F200001690029016A02D0491C0162ECE7891CA1
:101F3000FBE70168CA6822F08002CA600068C168D5
:101F400041F04001C1600020704700000148FFF7E8
:101F500043BB0000A40000200148FFF73DBB000088
:101F6000E4000020FEE70907090E002804DB00F169
:101F7000E02080F80014704700F00F0000F1E0202E
:101F800080F8141D704702E008C8121F08C1002A1B
:101F9000FAD170477047002001E001C1121F002AEA
:101FA000FBD17047FEF734FEFFF7CCFDFFF7FEFCD8
:101FB000FFF7CEFCFFF788FCFFF7A8FCFFF74AFD10
:101FC000FFF77CFDFFF79CFDFEE7000610160006FC
:101FD00010160000000000000000010203040607C4
:101FE0000809000000000102030400000C200008A2
:101FF0000000002014000000861F000820200008B8
:102000001400002034060000961F000800000000A5
:102010000100000010000000000000000024F40097
:040000050800018965
:00000001FF
